{
  "contractName": "crowdSale721",
  "abi": [
    {
      "inputs": [
        {
          "internalType": "uint256",
          "name": "_startSaleTime",
          "type": "uint256"
        },
        {
          "internalType": "uint256",
          "name": "_closeSaleTime",
          "type": "uint256"
        },
        {
          "internalType": "uint256",
          "name": "_price",
          "type": "uint256"
        },
        {
          "internalType": "uint256",
          "name": "_minPurchase",
          "type": "uint256"
        },
        {
          "internalType": "uint256",
          "name": "_maxPurchase",
          "type": "uint256"
        },
        {
          "internalType": "contract token721",
          "name": "_Token",
          "type": "address"
        }
      ],
      "stateMutability": "nonpayable",
      "type": "constructor"
    },
    {
      "inputs": [],
      "name": "Token",
      "outputs": [
        {
          "internalType": "contract token721",
          "name": "",
          "type": "address"
        }
      ],
      "stateMutability": "view",
      "type": "function",
      "constant": true
    },
    {
      "inputs": [],
      "name": "closeSaleTime",
      "outputs": [
        {
          "internalType": "uint256",
          "name": "",
          "type": "uint256"
        }
      ],
      "stateMutability": "view",
      "type": "function",
      "constant": true
    },
    {
      "inputs": [],
      "name": "maxPurchase",
      "outputs": [
        {
          "internalType": "uint256",
          "name": "",
          "type": "uint256"
        }
      ],
      "stateMutability": "view",
      "type": "function",
      "constant": true
    },
    {
      "inputs": [],
      "name": "minPurchase",
      "outputs": [
        {
          "internalType": "uint256",
          "name": "",
          "type": "uint256"
        }
      ],
      "stateMutability": "view",
      "type": "function",
      "constant": true
    },
    {
      "inputs": [],
      "name": "owner",
      "outputs": [
        {
          "internalType": "address",
          "name": "",
          "type": "address"
        }
      ],
      "stateMutability": "view",
      "type": "function",
      "constant": true
    },
    {
      "inputs": [],
      "name": "price",
      "outputs": [
        {
          "internalType": "uint256",
          "name": "",
          "type": "uint256"
        }
      ],
      "stateMutability": "view",
      "type": "function",
      "constant": true
    },
    {
      "inputs": [],
      "name": "startSaleTime",
      "outputs": [
        {
          "internalType": "uint256",
          "name": "",
          "type": "uint256"
        }
      ],
      "stateMutability": "view",
      "type": "function",
      "constant": true
    },
    {
      "inputs": [],
      "name": "saleActiveStatus",
      "outputs": [
        {
          "internalType": "bool",
          "name": "status",
          "type": "bool"
        }
      ],
      "stateMutability": "view",
      "type": "function",
      "constant": true
    },
    {
      "inputs": [
        {
          "internalType": "uint256",
          "name": "tokenAmount",
          "type": "uint256"
        }
      ],
      "name": "buyToken",
      "outputs": [],
      "stateMutability": "payable",
      "type": "function",
      "payable": true
    },
    {
      "inputs": [],
      "name": "withdrawether",
      "outputs": [],
      "stateMutability": "nonpayable",
      "type": "function"
    }
  ],
  "bytecode": "0x60806040523480156200001157600080fd5b506040516200128d3803806200128d8339818101604052810190620000379190620001e6565b336000806101000a81548173ffffffffffffffffffffffffffffffffffffffff021916908373ffffffffffffffffffffffffffffffffffffffff160217905550856001819055508460028190555060008611620000cb576040517f08c379a0000000000000000000000000000000000000000000000000000000008152600401620000c290620002f1565b60405180910390fd5b8585141562000111576040517f08c379a0000000000000000000000000000000000000000000000000000000008152600401620001089062000313565b60405180910390fd5b84861062000156576040517f08c379a00000000000000000000000000000000000000000000000000000000081526004016200014d9062000335565b60405180910390fd5b83600381905550826004819055508160058190555080600660006101000a81548173ffffffffffffffffffffffffffffffffffffffff021916908373ffffffffffffffffffffffffffffffffffffffff160217905550505050505050620004db565b600081519050620001c981620004a7565b92915050565b600081519050620001e081620004c1565b92915050565b60008060008060008060c087890312156200020057600080fd5b60006200021089828a01620001cf565b96505060206200022389828a01620001cf565b95505060406200023689828a01620001cf565b94505060606200024989828a01620001cf565b93505060806200025c89828a01620001cf565b92505060a06200026f89828a01620001b8565b9150509295509295509295565b60006200028b602f8362000357565b91506200029882620003ba565b604082019050919050565b6000620002b260308362000357565b9150620002bf8262000409565b604082019050919050565b6000620002d960358362000357565b9150620002e68262000458565b604082019050919050565b600060208201905081810360008301526200030c816200027c565b9050919050565b600060208201905081810360008301526200032e81620002a3565b9050919050565b600060208201905081810360008301526200035081620002ca565b9050919050565b600082825260208201905092915050565b6000620003758262000390565b9050919050565b6000620003898262000368565b9050919050565b600073ffffffffffffffffffffffffffffffffffffffff82169050919050565b6000819050919050565b7f7374617274696e672073616c652074696d652073616c652063616e6e6f74206260008201527f6520657175616c20746f207a65726f0000000000000000000000000000000000602082015250565b7f7374617274696e6720616e6420656e64696e672073616c652074696d6520736860008201527f6f756c64206e6f742062652073616d6500000000000000000000000000000000602082015250565b7f7374617274696e672073616c652074696d65206d757374206265206c6573732060008201527f7468616e20656e64696e672073616c652074696d650000000000000000000000602082015250565b620004b2816200037c565b8114620004be57600080fd5b50565b620004cc81620003b0565b8114620004d857600080fd5b50565b610da280620004eb6000396000f3fe6080604052600436106100915760003560e01c8063977b055b11610059578063977b055b1461014a578063a035b1fe14610175578063a961e9e8146101a0578063c2412676146101cb578063e26c88e2146101f657610091565b80632d296bf11461009657806333b5b62e146100b2578063409299f5146100dd5780635b40cfb2146101085780638da5cb5b1461011f575b600080fd5b6100b060048036038101906100ab91906106ce565b610221565b005b3480156100be57600080fd5b506100c76104dd565b6040516100d491906109df565b60405180910390f35b3480156100e957600080fd5b506100f26104e3565b6040516100ff9190610889565b60405180910390f35b34801561011457600080fd5b5061011d61051c565b005b34801561012b57600080fd5b50610134610657565b604051610141919061086e565b60405180910390f35b34801561015657600080fd5b5061015f61067b565b60405161016c91906109df565b60405180910390f35b34801561018157600080fd5b5061018a610681565b60405161019791906109df565b60405180910390f35b3480156101ac57600080fd5b506101b5610687565b6040516101c291906109df565b60405180910390f35b3480156101d757600080fd5b506101e061068d565b6040516101ed91906108a4565b60405180910390f35b34801561020257600080fd5b5061020b6106b3565b60405161021891906109df565b60405180910390f35b60015442118015610233575060025442105b610272576040517f08c379a0000000000000000000000000000000000000000000000000000000008152600401610269906109bf565b60405180910390fd5b6000339050600073ffffffffffffffffffffffffffffffffffffffff168173ffffffffffffffffffffffffffffffffffffffff1614156102e7576040517f08c379a00000000000000000000000000000000000000000000000000000000081526004016102de9061093f565b60405180910390fd5b600034141561032b576040517f08c379a0000000000000000000000000000000000000000000000000000000008152600401610322906108df565b60405180910390fd5b600082141561036f576040517f08c379a0000000000000000000000000000000000000000000000000000000008152600401610366906108ff565b60405180910390fd5b60045482146103b3576040517f08c379a00000000000000000000000000000000000000000000000000000000081526004016103aa906108bf565b60405180910390fd5b60055482146103f7576040517f08c379a00000000000000000000000000000000000000000000000000000000081526004016103ee9061095f565b60405180910390fd5b6000600354836104079190610a0b565b905080341461044b576040517f08c379a00000000000000000000000000000000000000000000000000000000081526004016104429061099f565b60405180910390fd5b600660009054906101000a900473ffffffffffffffffffffffffffffffffffffffff1673ffffffffffffffffffffffffffffffffffffffff16635154600e836040518263ffffffff1660e01b81526004016104a6919061086e565b600060405180830381600087803b1580156104c057600080fd5b505af11580156104d4573d6000803e3d6000fd5b50505050505050565b60045481565b6000600154421180156104f7575060025442105b156105055760019050610519565b6002544211156105185760009050610519565b5b90565b60008054906101000a900473ffffffffffffffffffffffffffffffffffffffff1673ffffffffffffffffffffffffffffffffffffffff163373ffffffffffffffffffffffffffffffffffffffff16146105aa576040517f08c379a00000000000000000000000000000000000000000000000000000000081526004016105a19061097f565b60405180910390fd5b60025442116105ee576040517f08c379a00000000000000000000000000000000000000000000000000000000081526004016105e59061091f565b60405180910390fd5b60008054906101000a900473ffffffffffffffffffffffffffffffffffffffff1673ffffffffffffffffffffffffffffffffffffffff166108fc479081150290604051600060405180830381858888f19350505050158015610654573d6000803e3d6000fd5b50565b60008054906101000a900473ffffffffffffffffffffffffffffffffffffffff1681565b60055481565b60035481565b60015481565b600660009054906101000a900473ffffffffffffffffffffffffffffffffffffffff1681565b60025481565b6000813590506106c881610d55565b92915050565b6000602082840312156106e057600080fd5b60006106ee848285016106b9565b91505092915050565b61070081610a65565b82525050565b61070f81610a77565b82525050565b61071e81610aad565b82525050565b6000610731603e836109fa565b915061073c82610b00565b604082019050919050565b60006107546022836109fa565b915061075f82610b4f565b604082019050919050565b60006107776026836109fa565b915061078282610b9e565b604082019050919050565b600061079a601d836109fa565b91506107a582610bed565b602082019050919050565b60006107bd6023836109fa565b91506107c882610c16565b604082019050919050565b60006107e0603e836109fa565b91506107eb82610c65565b604082019050919050565b6000610803602a836109fa565b915061080e82610cb4565b604082019050919050565b60006108266020836109fa565b915061083182610d03565b602082019050919050565b6000610849601d836109fa565b915061085482610d2c565b602082019050919050565b61086881610aa3565b82525050565b600060208201905061088360008301846106f7565b92915050565b600060208201905061089e6000830184610706565b92915050565b60006020820190506108b96000830184610715565b92915050565b600060208201905081810360008301526108d881610724565b9050919050565b600060208201905081810360008301526108f881610747565b9050919050565b600060208201905081810360008301526109188161076a565b9050919050565b600060208201905081810360008301526109388161078d565b9050919050565b60006020820190508181036000830152610958816107b0565b9050919050565b60006020820190508181036000830152610978816107d3565b9050919050565b60006020820190508181036000830152610998816107f6565b9050919050565b600060208201905081810360008301526109b881610819565b9050919050565b600060208201905081810360008301526109d88161083c565b9050919050565b60006020820190506109f4600083018461085f565b92915050565b600082825260208201905092915050565b6000610a1682610aa3565b9150610a2183610aa3565b9250817fffffffffffffffffffffffffffffffffffffffffffffffffffffffffffffffff0483118215151615610a5a57610a59610ad1565b5b828202905092915050565b6000610a7082610a83565b9050919050565b60008115159050919050565b600073ffffffffffffffffffffffffffffffffffffffff82169050919050565b6000819050919050565b6000610ab882610abf565b9050919050565b6000610aca82610a83565b9050919050565b7f4e487b7100000000000000000000000000000000000000000000000000000000600052601160045260246000fd5b7f746f6b656e20616d6f756e74206c657373207468616e206d696e696d756d207060008201527f75726368617365206c696d69743a20276d696e203120616c6c6f776564270000602082015250565b7f76616c75652073656e642063616e6e6f7420626520657175616c20746f207a6560008201527f726f000000000000000000000000000000000000000000000000000000000000602082015250565b7f546f6b656e20616d6f756e74206d75737420626520677265617465722074686160008201527f6e207a65726f0000000000000000000000000000000000000000000000000000602082015250565b7f54686520746f6b656e2073616c65206d75737420626520636c6f736564000000600082015250565b7f62757965722063616e6e6f7420626520657175616c20746f206164647265737360008201527f2830290000000000000000000000000000000000000000000000000000000000602082015250565b7f746f6b656e20616d6f756e74206d6f7265207468616e206d6178696d756d207060008201527f75726368617365206c696d69743a20276d6178203120616c6c6f776564270000602082015250565b7f6f6e6c79206f776e657220697320617574686f72697a656420746f2063616c6c60008201527f2073616c656f776e657200000000000000000000000000000000000000000000602082015250565b7f696e73756666696369656e7420616d6f756e7420746f2062757920746f6b656e600082015250565b7f54686520746f6b656e2053616c65206d75737420626520616374697665000000600082015250565b610d5e81610aa3565b8114610d6957600080fd5b5056fea26469706673582212207fdab498228f97c7887fc291c67da044ed0ba78d52c840ab69a21483974ea17d64736f6c63430008040033",
  "immutableReferences": {},
  "source": "//SPDX-License-Identifier: MIT\npragma solidity >=0.4.22 <0.9.0;\n\n\nimport \"./token721.sol\";\nimport \"../node_modules/@openzeppelin/contracts/token/ERC721/IERC721Receiver.sol\";\nimport \"../node_modules/@openzeppelin/contracts/utils/math/SafeMath.sol\";\n\n\ncontract crowdSale721{\n\n    using SafeMath for uint;\n    address public  owner;\n    uint public startSaleTime;\n    uint public closeSaleTime;\n    uint public price;\n    uint public minPurchase;\n    uint public maxPurchase;\n    token721 public Token;\n\n    constructor(\n        uint _startSaleTime,\n        uint _closeSaleTime,\n        uint _price,\n        uint _minPurchase,\n        uint _maxPurchase,\n        token721 _Token   \n    ){\n        // token721 token= token721(_Token);\n        // owner = token.owner();\n        owner = msg.sender;\n        \n        startSaleTime =  _startSaleTime;\n        closeSaleTime = _closeSaleTime;\n\n        require(_startSaleTime > 0, \"starting sale time sale cannot be equal to zero\");\n        require(_closeSaleTime != _startSaleTime, \"starting and ending sale time should not be same\");\n        require(_startSaleTime <_closeSaleTime, \"starting sale time must be less than ending sale time\");\n\n        price = _price;\n        minPurchase = _minPurchase;\n        maxPurchase = _maxPurchase;\n        Token = _Token;\n\n    }\n\n\n    modifier ownerOnly{\n        require(msg.sender == owner, \"only owner is authorized to call saleowner\");\n        _;\n    }\n\n    modifier onlyWhileActive{\n        require(block.timestamp > startSaleTime && block.timestamp <closeSaleTime, \"The token Sale must be active\");\n        _;\n    }\n    \n\n    modifier onlyWhenClosed{\n        require(block.timestamp > closeSaleTime, \"The token sale must be closed\");\n        _;  \n\n    }\n\n    function saleActiveStatus() public view returns (bool status){\n\n        if(block.timestamp > startSaleTime && block.timestamp < closeSaleTime){\n            return true;\n        }\n        if(block.timestamp > closeSaleTime){\n            return false;\n        }\n    }\n\n    // function tokenMint() public ownerOnly(){\n    //     Token._mintToken(address(this));\n    // }\n\n    function buyToken(uint tokenAmount) external onlyWhileActive() payable{\n\n        address buyer = msg.sender;\n\n        require(buyer != address(0), \"buyer cannot be equal to address(0)\");\n        require(msg.value != 0 , \"value send cannot be equal to zero\");\n        require(tokenAmount != 0 , \"Token amount must be greater than zero\");\n        require(tokenAmount == minPurchase, \"token amount less than minimum purchase limit: 'min 1 allowed'\");\n        require(tokenAmount == maxPurchase, \"token amount more than maximum purchase limit: 'max 1 allowed'\");\n\n\n        uint tokenValue = tokenAmount * price;\n        require(msg.value == tokenValue, \"insufficient amount to buy token\");\n\n        Token._mintToken(buyer);\n        // Token.transferFrom(address(this), buyer, 1);\n\n    }\n\n    function withdrawether() external ownerOnly() onlyWhenClosed(){\n\n        payable(owner).transfer(address(this).balance);\n    }\n\n\n}\n",
  "sourcePath": "/media/umar/2EB40689B406542D/Blockchain/ICO-721/src/contracts/crowdSale721.sol",
  "compiler": {
    "name": "solc",
    "version": "0.8.4+commit.c7e474f2.Emscripten.clang"
  },
  "schemaVersion": "3.4.7",
  "updatedAt": "2022-05-19T09:41:19.328Z",
  "networkType": "ethereum",
  "devdoc": {
    "kind": "dev",
    "methods": {},
    "version": 1
  },
  "userdoc": {
    "kind": "user",
    "methods": {},
    "version": 1
  }
}