{
  "contractName": "token721",
  "abi": [
    {
      "inputs": [
        {
          "internalType": "string",
          "name": "name",
          "type": "string"
        },
        {
          "internalType": "string",
          "name": "symbol",
          "type": "string"
        },
        {
          "internalType": "uint256",
          "name": "_maxSupply",
          "type": "uint256"
        }
      ],
      "stateMutability": "nonpayable",
      "type": "constructor"
    },
    {
      "anonymous": false,
      "inputs": [
        {
          "indexed": true,
          "internalType": "address",
          "name": "owner",
          "type": "address"
        },
        {
          "indexed": true,
          "internalType": "address",
          "name": "approved",
          "type": "address"
        },
        {
          "indexed": true,
          "internalType": "uint256",
          "name": "tokenId",
          "type": "uint256"
        }
      ],
      "name": "Approval",
      "type": "event"
    },
    {
      "anonymous": false,
      "inputs": [
        {
          "indexed": true,
          "internalType": "address",
          "name": "owner",
          "type": "address"
        },
        {
          "indexed": true,
          "internalType": "address",
          "name": "operator",
          "type": "address"
        },
        {
          "indexed": false,
          "internalType": "bool",
          "name": "approved",
          "type": "bool"
        }
      ],
      "name": "ApprovalForAll",
      "type": "event"
    },
    {
      "anonymous": false,
      "inputs": [
        {
          "indexed": true,
          "internalType": "address",
          "name": "from",
          "type": "address"
        },
        {
          "indexed": true,
          "internalType": "address",
          "name": "to",
          "type": "address"
        },
        {
          "indexed": true,
          "internalType": "uint256",
          "name": "tokenId",
          "type": "uint256"
        }
      ],
      "name": "Transfer",
      "type": "event"
    },
    {
      "inputs": [
        {
          "internalType": "address",
          "name": "to",
          "type": "address"
        },
        {
          "internalType": "uint256",
          "name": "tokenId",
          "type": "uint256"
        }
      ],
      "name": "approve",
      "outputs": [],
      "stateMutability": "nonpayable",
      "type": "function"
    },
    {
      "inputs": [
        {
          "internalType": "address",
          "name": "owner",
          "type": "address"
        }
      ],
      "name": "balanceOf",
      "outputs": [
        {
          "internalType": "uint256",
          "name": "",
          "type": "uint256"
        }
      ],
      "stateMutability": "view",
      "type": "function",
      "constant": true
    },
    {
      "inputs": [
        {
          "internalType": "uint256",
          "name": "tokenId",
          "type": "uint256"
        }
      ],
      "name": "getApproved",
      "outputs": [
        {
          "internalType": "address",
          "name": "",
          "type": "address"
        }
      ],
      "stateMutability": "view",
      "type": "function",
      "constant": true
    },
    {
      "inputs": [
        {
          "internalType": "address",
          "name": "owner",
          "type": "address"
        },
        {
          "internalType": "address",
          "name": "operator",
          "type": "address"
        }
      ],
      "name": "isApprovedForAll",
      "outputs": [
        {
          "internalType": "bool",
          "name": "",
          "type": "bool"
        }
      ],
      "stateMutability": "view",
      "type": "function",
      "constant": true
    },
    {
      "inputs": [],
      "name": "maxSupply",
      "outputs": [
        {
          "internalType": "uint256",
          "name": "",
          "type": "uint256"
        }
      ],
      "stateMutability": "view",
      "type": "function",
      "constant": true
    },
    {
      "inputs": [],
      "name": "name",
      "outputs": [
        {
          "internalType": "string",
          "name": "",
          "type": "string"
        }
      ],
      "stateMutability": "view",
      "type": "function",
      "constant": true
    },
    {
      "inputs": [],
      "name": "owner",
      "outputs": [
        {
          "internalType": "address",
          "name": "",
          "type": "address"
        }
      ],
      "stateMutability": "view",
      "type": "function",
      "constant": true
    },
    {
      "inputs": [
        {
          "internalType": "uint256",
          "name": "tokenId",
          "type": "uint256"
        }
      ],
      "name": "ownerOf",
      "outputs": [
        {
          "internalType": "address",
          "name": "",
          "type": "address"
        }
      ],
      "stateMutability": "view",
      "type": "function",
      "constant": true
    },
    {
      "inputs": [
        {
          "internalType": "address",
          "name": "from",
          "type": "address"
        },
        {
          "internalType": "address",
          "name": "to",
          "type": "address"
        },
        {
          "internalType": "uint256",
          "name": "tokenId",
          "type": "uint256"
        }
      ],
      "name": "safeTransferFrom",
      "outputs": [],
      "stateMutability": "nonpayable",
      "type": "function"
    },
    {
      "inputs": [
        {
          "internalType": "address",
          "name": "from",
          "type": "address"
        },
        {
          "internalType": "address",
          "name": "to",
          "type": "address"
        },
        {
          "internalType": "uint256",
          "name": "tokenId",
          "type": "uint256"
        },
        {
          "internalType": "bytes",
          "name": "_data",
          "type": "bytes"
        }
      ],
      "name": "safeTransferFrom",
      "outputs": [],
      "stateMutability": "nonpayable",
      "type": "function"
    },
    {
      "inputs": [
        {
          "internalType": "address",
          "name": "operator",
          "type": "address"
        },
        {
          "internalType": "bool",
          "name": "approved",
          "type": "bool"
        }
      ],
      "name": "setApprovalForAll",
      "outputs": [],
      "stateMutability": "nonpayable",
      "type": "function"
    },
    {
      "inputs": [],
      "name": "symbol",
      "outputs": [
        {
          "internalType": "string",
          "name": "",
          "type": "string"
        }
      ],
      "stateMutability": "view",
      "type": "function",
      "constant": true
    },
    {
      "inputs": [
        {
          "internalType": "uint256",
          "name": "index",
          "type": "uint256"
        }
      ],
      "name": "tokenByIndex",
      "outputs": [
        {
          "internalType": "uint256",
          "name": "",
          "type": "uint256"
        }
      ],
      "stateMutability": "view",
      "type": "function",
      "constant": true
    },
    {
      "inputs": [
        {
          "internalType": "address",
          "name": "owner",
          "type": "address"
        },
        {
          "internalType": "uint256",
          "name": "index",
          "type": "uint256"
        }
      ],
      "name": "tokenOfOwnerByIndex",
      "outputs": [
        {
          "internalType": "uint256",
          "name": "",
          "type": "uint256"
        }
      ],
      "stateMutability": "view",
      "type": "function",
      "constant": true
    },
    {
      "inputs": [
        {
          "internalType": "uint256",
          "name": "tokenId",
          "type": "uint256"
        }
      ],
      "name": "tokenURI",
      "outputs": [
        {
          "internalType": "string",
          "name": "",
          "type": "string"
        }
      ],
      "stateMutability": "view",
      "type": "function",
      "constant": true
    },
    {
      "inputs": [],
      "name": "totalSupply",
      "outputs": [
        {
          "internalType": "uint256",
          "name": "",
          "type": "uint256"
        }
      ],
      "stateMutability": "view",
      "type": "function",
      "constant": true
    },
    {
      "inputs": [
        {
          "internalType": "address",
          "name": "from",
          "type": "address"
        },
        {
          "internalType": "address",
          "name": "to",
          "type": "address"
        },
        {
          "internalType": "uint256",
          "name": "tokenId",
          "type": "uint256"
        }
      ],
      "name": "transferFrom",
      "outputs": [],
      "stateMutability": "nonpayable",
      "type": "function"
    },
    {
      "inputs": [
        {
          "internalType": "address",
          "name": "_to",
          "type": "address"
        }
      ],
      "name": "_mintToken",
      "outputs": [],
      "stateMutability": "nonpayable",
      "type": "function"
    },
    {
      "inputs": [
        {
          "internalType": "bytes4",
          "name": "interfaceId",
          "type": "bytes4"
        }
      ],
      "name": "supportsInterface",
      "outputs": [
        {
          "internalType": "bool",
          "name": "",
          "type": "bool"
        }
      ],
      "stateMutability": "view",
      "type": "function",
      "constant": true
    }
  ],
  "bytecode": "0x60806040523480156200001157600080fd5b506040516200387e3803806200387e83398181016040528101906200003791906200026a565b828281600090805190602001906200005192919062000131565b5080600190805190602001906200006a92919062000131565b505050600073ffffffffffffffffffffffffffffffffffffffff163373ffffffffffffffffffffffffffffffffffffffff161415620000e0576040517f08c379a0000000000000000000000000000000000000000000000000000000008152600401620000d79062000319565b60405180910390fd5b33600b60006101000a81548173ffffffffffffffffffffffffffffffffffffffff021916908373ffffffffffffffffffffffffffffffffffffffff16021790555080600c8190555050505062000509565b8280546200013f90620003eb565b90600052602060002090601f016020900481019282620001635760008555620001af565b82601f106200017e57805160ff1916838001178555620001af565b82800160010185558215620001af579182015b82811115620001ae57825182559160200191906001019062000191565b5b509050620001be9190620001c2565b5090565b5b80821115620001dd576000816000905550600101620001c3565b5090565b6000620001f8620001f28462000364565b6200033b565b9050828152602081018484840111156200021157600080fd5b6200021e848285620003b5565b509392505050565b600082601f8301126200023857600080fd5b81516200024a848260208601620001e1565b91505092915050565b6000815190506200026481620004ef565b92915050565b6000806000606084860312156200028057600080fd5b600084015167ffffffffffffffff8111156200029b57600080fd5b620002a98682870162000226565b935050602084015167ffffffffffffffff811115620002c757600080fd5b620002d58682870162000226565b9250506040620002e88682870162000253565b9150509250925092565b600062000301601a836200039a565b91506200030e82620004c6565b602082019050919050565b600060208201905081810360008301526200033481620002f2565b9050919050565b6000620003476200035a565b905062000355828262000421565b919050565b6000604051905090565b600067ffffffffffffffff82111562000382576200038162000486565b5b6200038d82620004b5565b9050602081019050919050565b600082825260208201905092915050565b6000819050919050565b60005b83811015620003d5578082015181840152602081019050620003b8565b83811115620003e5576000848401525b50505050565b600060028204905060018216806200040457607f821691505b602082108114156200041b576200041a62000457565b5b50919050565b6200042c82620004b5565b810181811067ffffffffffffffff821117156200044e576200044d62000486565b5b80604052505050565b7f4e487b7100000000000000000000000000000000000000000000000000000000600052602260045260246000fd5b7f4e487b7100000000000000000000000000000000000000000000000000000000600052604160045260246000fd5b6000601f19601f8301169050919050565b7f6f776e65722063616e6e6f742062652041646472657373283029000000000000600082015250565b620004fa81620003ab565b81146200050657600080fd5b50565b61336580620005196000396000f3fe608060405234801561001057600080fd5b50600436106101215760003560e01c80635154600e116100ad578063a22cb46511610071578063a22cb4651461032e578063b88d4fde1461034a578063c87b56dd14610366578063d5abeb0114610396578063e985e9c5146103b457610121565b80635154600e146102765780636352211e1461029257806370a08231146102c25780638da5cb5b146102f257806395d89b411461031057610121565b806318160ddd116100f457806318160ddd146101c057806323b872dd146101de5780632f745c59146101fa57806342842e0e1461022a5780634f6ccce71461024657610121565b806301ffc9a71461012657806306fdde0314610156578063081812fc14610174578063095ea7b3146101a4575b600080fd5b610140600480360381019061013b9190612247565b6103e4565b60405161014d91906126d9565b60405180910390f35b61015e6103f6565b60405161016b91906126f4565b60405180910390f35b61018e60048036038101906101899190612299565b610488565b60405161019b9190612672565b60405180910390f35b6101be60048036038101906101b9919061220b565b61050d565b005b6101c8610625565b6040516101d59190612996565b60405180910390f35b6101f860048036038101906101f39190612105565b610632565b005b610214600480360381019061020f919061220b565b610692565b6040516102219190612996565b60405180910390f35b610244600480360381019061023f9190612105565b610737565b005b610260600480360381019061025b9190612299565b610757565b60405161026d9190612996565b60405180910390f35b610290600480360381019061028b91906120a0565b6107ee565b005b6102ac60048036038101906102a79190612299565b610958565b6040516102b99190612672565b60405180910390f35b6102dc60048036038101906102d791906120a0565b610a0a565b6040516102e99190612996565b60405180910390f35b6102fa610ac2565b6040516103079190612672565b60405180910390f35b610318610ae8565b60405161032591906126f4565b60405180910390f35b610348600480360381019061034391906121cf565b610b7a565b005b610364600480360381019061035f9190612154565b610b90565b005b610380600480360381019061037b9190612299565b610bf2565b60405161038d91906126f4565b60405180910390f35b61039e610c99565b6040516103ab9190612996565b60405180910390f35b6103ce60048036038101906103c991906120c9565b610c9f565b6040516103db91906126d9565b60405180910390f35b60006103ef82610d33565b9050919050565b60606000805461040590612bbb565b80601f016020809104026020016040519081016040528092919081815260200182805461043190612bbb565b801561047e5780601f106104535761010080835404028352916020019161047e565b820191906000526020600020905b81548152906001019060200180831161046157829003601f168201915b5050505050905090565b600061049382610dad565b6104d2576040517f08c379a00000000000000000000000000000000000000000000000000000000081526004016104c9906128b6565b60405180910390fd5b6004600083815260200190815260200160002060009054906101000a900473ffffffffffffffffffffffffffffffffffffffff169050919050565b600061051882610958565b90508073ffffffffffffffffffffffffffffffffffffffff168373ffffffffffffffffffffffffffffffffffffffff161415610589576040517f08c379a000000000000000000000000000000000000000000000000000000000815260040161058090612916565b60405180910390fd5b8073ffffffffffffffffffffffffffffffffffffffff166105a8610e19565b73ffffffffffffffffffffffffffffffffffffffff1614806105d757506105d6816105d1610e19565b610c9f565b5b610616576040517f08c379a000000000000000000000000000000000000000000000000000000000815260040161060d90612816565b60405180910390fd5b6106208383610e21565b505050565b6000600880549050905090565b61064361063d610e19565b82610eda565b610682576040517f08c379a000000000000000000000000000000000000000000000000000000000815260040161067990612936565b60405180910390fd5b61068d838383610fb8565b505050565b600061069d83610a0a565b82106106de576040517f08c379a00000000000000000000000000000000000000000000000000000000081526004016106d590612716565b60405180910390fd5b600660008473ffffffffffffffffffffffffffffffffffffffff1673ffffffffffffffffffffffffffffffffffffffff168152602001908152602001600020600083815260200190815260200160002054905092915050565b61075283838360405180602001604052806000815250610b90565b505050565b6000610761610625565b82106107a2576040517f08c379a000000000000000000000000000000000000000000000000000000000815260040161079990612956565b60405180910390fd5b600882815481106107dc577f4e487b7100000000000000000000000000000000000000000000000000000000600052603260045260246000fd5b90600052602060002001549050919050565b600073ffffffffffffffffffffffffffffffffffffffff168173ffffffffffffffffffffffffffffffffffffffff16141561085e576040517f08c379a000000000000000000000000000000000000000000000000000000000815260040161085590612876565b60405180910390fd5b610868600a61121f565b6000610874600a611235565b905061087f81610dad565b156108bf576040517f08c379a00000000000000000000000000000000000000000000000000000000081526004016108b6906128f6565b60405180910390fd5b6000600c541415610905576040517f08c379a00000000000000000000000000000000000000000000000000000000081526004016108fc90612976565b60405180910390fd5b600c5481111561094a576040517f08c379a000000000000000000000000000000000000000000000000000000000815260040161094190612756565b60405180910390fd5b6109548282611243565b5050565b6000806002600084815260200190815260200160002060009054906101000a900473ffffffffffffffffffffffffffffffffffffffff169050600073ffffffffffffffffffffffffffffffffffffffff168173ffffffffffffffffffffffffffffffffffffffff161415610a01576040517f08c379a00000000000000000000000000000000000000000000000000000000081526004016109f890612856565b60405180910390fd5b80915050919050565b60008073ffffffffffffffffffffffffffffffffffffffff168273ffffffffffffffffffffffffffffffffffffffff161415610a7b576040517f08c379a0000000000000000000000000000000000000000000000000000000008152600401610a7290612836565b60405180910390fd5b600360008373ffffffffffffffffffffffffffffffffffffffff1673ffffffffffffffffffffffffffffffffffffffff168152602001908152602001600020549050919050565b600b60009054906101000a900473ffffffffffffffffffffffffffffffffffffffff1681565b606060018054610af790612bbb565b80601f0160208091040260200160405190810160405280929190818152602001828054610b2390612bbb565b8015610b705780601f10610b4557610100808354040283529160200191610b70565b820191906000526020600020905b815481529060010190602001808311610b5357829003601f168201915b5050505050905090565b610b8c610b85610e19565b8383611261565b5050565b610ba1610b9b610e19565b83610eda565b610be0576040517f08c379a0000000000000000000000000000000000000000000000000000000008152600401610bd790612936565b60405180910390fd5b610bec848484846113ce565b50505050565b6060610bfd82610dad565b610c3c576040517f08c379a0000000000000000000000000000000000000000000000000000000008152600401610c33906128d6565b60405180910390fd5b6000610c4661142a565b90506000815111610c665760405180602001604052806000815250610c91565b80610c7084611441565b604051602001610c8192919061264e565b6040516020818303038152906040525b915050919050565b600c5481565b6000600560008473ffffffffffffffffffffffffffffffffffffffff1673ffffffffffffffffffffffffffffffffffffffff16815260200190815260200160002060008373ffffffffffffffffffffffffffffffffffffffff1673ffffffffffffffffffffffffffffffffffffffff16815260200190815260200160002060009054906101000a900460ff16905092915050565b60007f780e9d63000000000000000000000000000000000000000000000000000000007bffffffffffffffffffffffffffffffffffffffffffffffffffffffff1916827bffffffffffffffffffffffffffffffffffffffffffffffffffffffff19161480610da65750610da5826115ee565b5b9050919050565b60008073ffffffffffffffffffffffffffffffffffffffff166002600084815260200190815260200160002060009054906101000a900473ffffffffffffffffffffffffffffffffffffffff1673ffffffffffffffffffffffffffffffffffffffff1614159050919050565b600033905090565b816004600083815260200190815260200160002060006101000a81548173ffffffffffffffffffffffffffffffffffffffff021916908373ffffffffffffffffffffffffffffffffffffffff160217905550808273ffffffffffffffffffffffffffffffffffffffff16610e9483610958565b73ffffffffffffffffffffffffffffffffffffffff167f8c5be1e5ebec7d5bd14f71427d1e84f3dd0314c0f7b2291e5b200ac8c7c3b92560405160405180910390a45050565b6000610ee582610dad565b610f24576040517f08c379a0000000000000000000000000000000000000000000000000000000008152600401610f1b906127f6565b60405180910390fd5b6000610f2f83610958565b90508073ffffffffffffffffffffffffffffffffffffffff168473ffffffffffffffffffffffffffffffffffffffff161480610f715750610f708185610c9f565b5b80610faf57508373ffffffffffffffffffffffffffffffffffffffff16610f9784610488565b73ffffffffffffffffffffffffffffffffffffffff16145b91505092915050565b8273ffffffffffffffffffffffffffffffffffffffff16610fd882610958565b73ffffffffffffffffffffffffffffffffffffffff161461102e576040517f08c379a000000000000000000000000000000000000000000000000000000000815260040161102590612776565b60405180910390fd5b600073ffffffffffffffffffffffffffffffffffffffff168273ffffffffffffffffffffffffffffffffffffffff16141561109e576040517f08c379a0000000000000000000000000000000000000000000000000000000008152600401611095906127b6565b60405180910390fd5b6110a98383836116d0565b6110b4600082610e21565b6001600360008573ffffffffffffffffffffffffffffffffffffffff1673ffffffffffffffffffffffffffffffffffffffff16815260200190815260200160002060008282546111049190612ad1565b925050819055506001600360008473ffffffffffffffffffffffffffffffffffffffff1673ffffffffffffffffffffffffffffffffffffffff168152602001908152602001600020600082825461115b9190612a4a565b92505081905550816002600083815260200190815260200160002060006101000a81548173ffffffffffffffffffffffffffffffffffffffff021916908373ffffffffffffffffffffffffffffffffffffffff160217905550808273ffffffffffffffffffffffffffffffffffffffff168473ffffffffffffffffffffffffffffffffffffffff167fddf252ad1be2c89b69c2b068fc378daa952ba7f163c4a11628f55a4df523b3ef60405160405180910390a461121a8383836116e0565b505050565b6001816000016000828254019250508190555050565b600081600001549050919050565b61125d8282604051806020016040528060008152506116e5565b5050565b8173ffffffffffffffffffffffffffffffffffffffff168373ffffffffffffffffffffffffffffffffffffffff1614156112d0576040517f08c379a00000000000000000000000000000000000000000000000000000000081526004016112c7906127d6565b60405180910390fd5b80600560008573ffffffffffffffffffffffffffffffffffffffff1673ffffffffffffffffffffffffffffffffffffffff16815260200190815260200160002060008473ffffffffffffffffffffffffffffffffffffffff1673ffffffffffffffffffffffffffffffffffffffff16815260200190815260200160002060006101000a81548160ff0219169083151502179055508173ffffffffffffffffffffffffffffffffffffffff168373ffffffffffffffffffffffffffffffffffffffff167f17307eab39ab6107e8899845ad3d59bd9653f200f220920489ca2b5937696c31836040516113c191906126d9565b60405180910390a3505050565b6113d9848484610fb8565b6113e584848484611740565b611424576040517f08c379a000000000000000000000000000000000000000000000000000000000815260040161141b90612736565b60405180910390fd5b50505050565b606060405180602001604052806000815250905090565b60606000821415611489576040518060400160405280600181526020017f300000000000000000000000000000000000000000000000000000000000000081525090506115e9565b600082905060005b600082146114bb5780806114a490612c1e565b915050600a826114b49190612aa0565b9150611491565b60008167ffffffffffffffff8111156114fd577f4e487b7100000000000000000000000000000000000000000000000000000000600052604160045260246000fd5b6040519080825280601f01601f19166020018201604052801561152f5781602001600182028036833780820191505090505b5090505b600085146115e2576001826115489190612ad1565b9150600a856115579190612c67565b60306115639190612a4a565b60f81b81838151811061159f577f4e487b7100000000000000000000000000000000000000000000000000000000600052603260045260246000fd5b60200101907effffffffffffffffffffffffffffffffffffffffffffffffffffffffffffff1916908160001a905350600a856115db9190612aa0565b9450611533565b8093505050505b919050565b60007f80ac58cd000000000000000000000000000000000000000000000000000000007bffffffffffffffffffffffffffffffffffffffffffffffffffffffff1916827bffffffffffffffffffffffffffffffffffffffffffffffffffffffff191614806116b957507f5b5e139f000000000000000000000000000000000000000000000000000000007bffffffffffffffffffffffffffffffffffffffffffffffffffffffff1916827bffffffffffffffffffffffffffffffffffffffffffffffffffffffff1916145b806116c957506116c8826118d7565b5b9050919050565b6116db838383611941565b505050565b505050565b6116ef8383611a55565b6116fc6000848484611740565b61173b576040517f08c379a000000000000000000000000000000000000000000000000000000000815260040161173290612736565b60405180910390fd5b505050565b60006117618473ffffffffffffffffffffffffffffffffffffffff16611c2f565b156118ca578373ffffffffffffffffffffffffffffffffffffffff1663150b7a0261178a610e19565b8786866040518563ffffffff1660e01b81526004016117ac949392919061268d565b602060405180830381600087803b1580156117c657600080fd5b505af19250505080156117f757506040513d601f19601f820116820180604052508101906117f49190612270565b60015b61187a573d8060008114611827576040519150601f19603f3d011682016040523d82523d6000602084013e61182c565b606091505b50600081511415611872576040517f08c379a000000000000000000000000000000000000000000000000000000000815260040161186990612736565b60405180910390fd5b805181602001fd5b63150b7a0260e01b7bffffffffffffffffffffffffffffffffffffffffffffffffffffffff1916817bffffffffffffffffffffffffffffffffffffffffffffffffffffffff1916149150506118cf565b600190505b949350505050565b60007f01ffc9a7000000000000000000000000000000000000000000000000000000007bffffffffffffffffffffffffffffffffffffffffffffffffffffffff1916827bffffffffffffffffffffffffffffffffffffffffffffffffffffffff1916149050919050565b61194c838383611c52565b600073ffffffffffffffffffffffffffffffffffffffff168373ffffffffffffffffffffffffffffffffffffffff16141561198f5761198a81611c57565b6119ce565b8173ffffffffffffffffffffffffffffffffffffffff168373ffffffffffffffffffffffffffffffffffffffff16146119cd576119cc8382611ca0565b5b5b600073ffffffffffffffffffffffffffffffffffffffff168273ffffffffffffffffffffffffffffffffffffffff161415611a1157611a0c81611e0d565b611a50565b8273ffffffffffffffffffffffffffffffffffffffff168273ffffffffffffffffffffffffffffffffffffffff1614611a4f57611a4e8282611f50565b5b5b505050565b600073ffffffffffffffffffffffffffffffffffffffff168273ffffffffffffffffffffffffffffffffffffffff161415611ac5576040517f08c379a0000000000000000000000000000000000000000000000000000000008152600401611abc90612896565b60405180910390fd5b611ace81610dad565b15611b0e576040517f08c379a0000000000000000000000000000000000000000000000000000000008152600401611b0590612796565b60405180910390fd5b611b1a600083836116d0565b6001600360008473ffffffffffffffffffffffffffffffffffffffff1673ffffffffffffffffffffffffffffffffffffffff1681526020019081526020016000206000828254611b6a9190612a4a565b92505081905550816002600083815260200190815260200160002060006101000a81548173ffffffffffffffffffffffffffffffffffffffff021916908373ffffffffffffffffffffffffffffffffffffffff160217905550808273ffffffffffffffffffffffffffffffffffffffff16600073ffffffffffffffffffffffffffffffffffffffff167fddf252ad1be2c89b69c2b068fc378daa952ba7f163c4a11628f55a4df523b3ef60405160405180910390a4611c2b600083836116e0565b5050565b6000808273ffffffffffffffffffffffffffffffffffffffff163b119050919050565b505050565b6008805490506009600083815260200190815260200160002081905550600881908060018154018082558091505060019003906000526020600020016000909190919091505550565b60006001611cad84610a0a565b611cb79190612ad1565b9050600060076000848152602001908152602001600020549050818114611d9c576000600660008673ffffffffffffffffffffffffffffffffffffffff1673ffffffffffffffffffffffffffffffffffffffff168152602001908152602001600020600084815260200190815260200160002054905080600660008773ffffffffffffffffffffffffffffffffffffffff1673ffffffffffffffffffffffffffffffffffffffff168152602001908152602001600020600084815260200190815260200160002081905550816007600083815260200190815260200160002081905550505b6007600084815260200190815260200160002060009055600660008573ffffffffffffffffffffffffffffffffffffffff1673ffffffffffffffffffffffffffffffffffffffff16815260200190815260200160002060008381526020019081526020016000206000905550505050565b60006001600880549050611e219190612ad1565b9050600060096000848152602001908152602001600020549050600060088381548110611e77577f4e487b7100000000000000000000000000000000000000000000000000000000600052603260045260246000fd5b906000526020600020015490508060088381548110611ebf577f4e487b7100000000000000000000000000000000000000000000000000000000600052603260045260246000fd5b906000526020600020018190555081600960008381526020019081526020016000208190555060096000858152602001908152602001600020600090556008805480611f34577f4e487b7100000000000000000000000000000000000000000000000000000000600052603160045260246000fd5b6001900381819060005260206000200160009055905550505050565b6000611f5b83610a0a565b905081600660008573ffffffffffffffffffffffffffffffffffffffff1673ffffffffffffffffffffffffffffffffffffffff168152602001908152602001600020600083815260200190815260200160002081905550806007600084815260200190815260200160002081905550505050565b6000611fe2611fdd846129d6565b6129b1565b905082815260208101848484011115611ffa57600080fd5b612005848285612b79565b509392505050565b60008135905061201c816132d3565b92915050565b600081359050612031816132ea565b92915050565b60008135905061204681613301565b92915050565b60008151905061205b81613301565b92915050565b600082601f83011261207257600080fd5b8135612082848260208601611fcf565b91505092915050565b60008135905061209a81613318565b92915050565b6000602082840312156120b257600080fd5b60006120c08482850161200d565b91505092915050565b600080604083850312156120dc57600080fd5b60006120ea8582860161200d565b92505060206120fb8582860161200d565b9150509250929050565b60008060006060848603121561211a57600080fd5b60006121288682870161200d565b93505060206121398682870161200d565b925050604061214a8682870161208b565b9150509250925092565b6000806000806080858703121561216a57600080fd5b60006121788782880161200d565b94505060206121898782880161200d565b935050604061219a8782880161208b565b925050606085013567ffffffffffffffff8111156121b757600080fd5b6121c387828801612061565b91505092959194509250565b600080604083850312156121e257600080fd5b60006121f08582860161200d565b925050602061220185828601612022565b9150509250929050565b6000806040838503121561221e57600080fd5b600061222c8582860161200d565b925050602061223d8582860161208b565b9150509250929050565b60006020828403121561225957600080fd5b600061226784828501612037565b91505092915050565b60006020828403121561228257600080fd5b60006122908482850161204c565b91505092915050565b6000602082840312156122ab57600080fd5b60006122b98482850161208b565b91505092915050565b6122cb81612b05565b82525050565b6122da81612b17565b82525050565b60006122eb82612a07565b6122f58185612a1d565b9350612305818560208601612b88565b61230e81612d54565b840191505092915050565b600061232482612a12565b61232e8185612a2e565b935061233e818560208601612b88565b61234781612d54565b840191505092915050565b600061235d82612a12565b6123678185612a3f565b9350612377818560208601612b88565b80840191505092915050565b6000612390602b83612a2e565b915061239b82612d65565b604082019050919050565b60006123b3603283612a2e565b91506123be82612db4565b604082019050919050565b60006123d6602a83612a2e565b91506123e182612e03565b604082019050919050565b60006123f9602583612a2e565b915061240482612e52565b604082019050919050565b600061241c601c83612a2e565b915061242782612ea1565b602082019050919050565b600061243f602483612a2e565b915061244a82612eca565b604082019050919050565b6000612462601983612a2e565b915061246d82612f19565b602082019050919050565b6000612485602c83612a2e565b915061249082612f42565b604082019050919050565b60006124a8603883612a2e565b91506124b382612f91565b604082019050919050565b60006124cb602a83612a2e565b91506124d682612fe0565b604082019050919050565b60006124ee602983612a2e565b91506124f98261302f565b604082019050919050565b6000612511600f83612a2e565b915061251c8261307e565b602082019050919050565b6000612534602083612a2e565b915061253f826130a7565b602082019050919050565b6000612557602c83612a2e565b9150612562826130d0565b604082019050919050565b600061257a602f83612a2e565b91506125858261311f565b604082019050919050565b600061259d601483612a2e565b91506125a88261316e565b602082019050919050565b60006125c0602183612a2e565b91506125cb82613197565b604082019050919050565b60006125e3603183612a2e565b91506125ee826131e6565b604082019050919050565b6000612606602c83612a2e565b915061261182613235565b604082019050919050565b6000612629602283612a2e565b915061263482613284565b604082019050919050565b61264881612b6f565b82525050565b600061265a8285612352565b91506126668284612352565b91508190509392505050565b600060208201905061268760008301846122c2565b92915050565b60006080820190506126a260008301876122c2565b6126af60208301866122c2565b6126bc604083018561263f565b81810360608301526126ce81846122e0565b905095945050505050565b60006020820190506126ee60008301846122d1565b92915050565b6000602082019050818103600083015261270e8184612319565b905092915050565b6000602082019050818103600083015261272f81612383565b9050919050565b6000602082019050818103600083015261274f816123a6565b9050919050565b6000602082019050818103600083015261276f816123c9565b9050919050565b6000602082019050818103600083015261278f816123ec565b9050919050565b600060208201905081810360008301526127af8161240f565b9050919050565b600060208201905081810360008301526127cf81612432565b9050919050565b600060208201905081810360008301526127ef81612455565b9050919050565b6000602082019050818103600083015261280f81612478565b9050919050565b6000602082019050818103600083015261282f8161249b565b9050919050565b6000602082019050818103600083015261284f816124be565b9050919050565b6000602082019050818103600083015261286f816124e1565b9050919050565b6000602082019050818103600083015261288f81612504565b9050919050565b600060208201905081810360008301526128af81612527565b9050919050565b600060208201905081810360008301526128cf8161254a565b9050919050565b600060208201905081810360008301526128ef8161256d565b9050919050565b6000602082019050818103600083015261290f81612590565b9050919050565b6000602082019050818103600083015261292f816125b3565b9050919050565b6000602082019050818103600083015261294f816125d6565b9050919050565b6000602082019050818103600083015261296f816125f9565b9050919050565b6000602082019050818103600083015261298f8161261c565b9050919050565b60006020820190506129ab600083018461263f565b92915050565b60006129bb6129cc565b90506129c78282612bed565b919050565b6000604051905090565b600067ffffffffffffffff8211156129f1576129f0612d25565b5b6129fa82612d54565b9050602081019050919050565b600081519050919050565b600081519050919050565b600082825260208201905092915050565b600082825260208201905092915050565b600081905092915050565b6000612a5582612b6f565b9150612a6083612b6f565b9250827fffffffffffffffffffffffffffffffffffffffffffffffffffffffffffffffff03821115612a9557612a94612c98565b5b828201905092915050565b6000612aab82612b6f565b9150612ab683612b6f565b925082612ac657612ac5612cc7565b5b828204905092915050565b6000612adc82612b6f565b9150612ae783612b6f565b925082821015612afa57612af9612c98565b5b828203905092915050565b6000612b1082612b4f565b9050919050565b60008115159050919050565b60007fffffffff0000000000000000000000000000000000000000000000000000000082169050919050565b600073ffffffffffffffffffffffffffffffffffffffff82169050919050565b6000819050919050565b82818337600083830152505050565b60005b83811015612ba6578082015181840152602081019050612b8b565b83811115612bb5576000848401525b50505050565b60006002820490506001821680612bd357607f821691505b60208210811415612be757612be6612cf6565b5b50919050565b612bf682612d54565b810181811067ffffffffffffffff82111715612c1557612c14612d25565b5b80604052505050565b6000612c2982612b6f565b91507fffffffffffffffffffffffffffffffffffffffffffffffffffffffffffffffff821415612c5c57612c5b612c98565b5b600182019050919050565b6000612c7282612b6f565b9150612c7d83612b6f565b925082612c8d57612c8c612cc7565b5b828206905092915050565b7f4e487b7100000000000000000000000000000000000000000000000000000000600052601160045260246000fd5b7f4e487b7100000000000000000000000000000000000000000000000000000000600052601260045260246000fd5b7f4e487b7100000000000000000000000000000000000000000000000000000000600052602260045260246000fd5b7f4e487b7100000000000000000000000000000000000000000000000000000000600052604160045260246000fd5b6000601f19601f8301169050919050565b7f455243373231456e756d657261626c653a206f776e657220696e646578206f7560008201527f74206f6620626f756e6473000000000000000000000000000000000000000000602082015250565b7f4552433732313a207472616e7366657220746f206e6f6e20455243373231526560008201527f63656976657220696d706c656d656e7465720000000000000000000000000000602082015250565b7f43616e6e6f74206d696e74206d6f7265207468616e206d6178696d756d20737560008201527f70706c79206c696d697400000000000000000000000000000000000000000000602082015250565b7f4552433732313a207472616e736665722066726f6d20696e636f72726563742060008201527f6f776e6572000000000000000000000000000000000000000000000000000000602082015250565b7f4552433732313a20746f6b656e20616c7265616479206d696e74656400000000600082015250565b7f4552433732313a207472616e7366657220746f20746865207a65726f2061646460008201527f7265737300000000000000000000000000000000000000000000000000000000602082015250565b7f4552433732313a20617070726f766520746f2063616c6c657200000000000000600082015250565b7f4552433732313a206f70657261746f7220717565727920666f72206e6f6e657860008201527f697374656e7420746f6b656e0000000000000000000000000000000000000000602082015250565b7f4552433732313a20617070726f76652063616c6c6572206973206e6f74206f7760008201527f6e6572206e6f7220617070726f76656420666f7220616c6c0000000000000000602082015250565b7f4552433732313a2062616c616e636520717565727920666f7220746865207a6560008201527f726f206164647265737300000000000000000000000000000000000000000000602082015250565b7f4552433732313a206f776e657220717565727920666f72206e6f6e657869737460008201527f656e7420746f6b656e0000000000000000000000000000000000000000000000602082015250565b7f696e76616c696420616464726573730000000000000000000000000000000000600082015250565b7f4552433732313a206d696e7420746f20746865207a65726f2061646472657373600082015250565b7f4552433732313a20617070726f76656420717565727920666f72206e6f6e657860008201527f697374656e7420746f6b656e0000000000000000000000000000000000000000602082015250565b7f4552433732314d657461646174613a2055524920717565727920666f72206e6f60008201527f6e6578697374656e7420746f6b656e0000000000000000000000000000000000602082015250565b7f746f6b656e20616c7265616479206d696e746564000000000000000000000000600082015250565b7f4552433732313a20617070726f76616c20746f2063757272656e74206f776e6560008201527f7200000000000000000000000000000000000000000000000000000000000000602082015250565b7f4552433732313a207472616e736665722063616c6c6572206973206e6f74206f60008201527f776e6572206e6f7220617070726f766564000000000000000000000000000000602082015250565b7f455243373231456e756d657261626c653a20676c6f62616c20696e646578206f60008201527f7574206f6620626f756e64730000000000000000000000000000000000000000602082015250565b7f6d617820537570706c792063616e6e6f7420626520657175616c20746f207a6560008201527f726f000000000000000000000000000000000000000000000000000000000000602082015250565b6132dc81612b05565b81146132e757600080fd5b50565b6132f381612b17565b81146132fe57600080fd5b50565b61330a81612b23565b811461331557600080fd5b50565b61332181612b6f565b811461332c57600080fd5b5056fea264697066735822122020b5f55b22de5e89704212f1237a77b922439c8c71adad1f6a602ddab722f28d64736f6c63430008040033",
  "immutableReferences": {},
  "source": "//SPDX-License-Identifier: MIT\npragma solidity >=0.4.22 <0.9.0;\n\n\nimport \"../node_modules/@openzeppelin/contracts/token/ERC721/ERC721.sol\";\nimport \"../node_modules/@openzeppelin/contracts/token/ERC721/extensions/ERC721Enumerable.sol\";\nimport \"../node_modules/@openzeppelin/contracts/token/ERC721/IERC721Receiver.sol\";\nimport \"../node_modules/@openzeppelin/contracts/token/ERC721/IERC721Receiver.sol\";\nimport \"../node_modules/@openzeppelin/contracts/utils/Counters.sol\";\nimport \"../node_modules/@openzeppelin/contracts/utils/math/SafeMath.sol\";\n\n\ncontract token721 is ERC721, ERC721Enumerable{\n\n    using SafeMath for uint;\n    using Counters for Counters.Counter;\n    Counters.Counter private tokenIdCounter;\n\n    address public owner ;\n    uint public maxSupply;\n\n    constructor(\n        string memory name,\n        string memory symbol,\n        uint _maxSupply\n\n    ) ERC721(name , symbol){\n\n        require(msg.sender != address(0), \"owner cannot be Address(0)\");\n        owner = msg.sender;\n\n        maxSupply = _maxSupply;\n    }\n\n    modifier ownerOnly(){\n        require(msg.sender == owner, \"only owner is authorized to call\");\n        _;\n    }\n\n    function _mintToken( address _to) external {\n\n        require(_to != address(0), \"invalid address\");\n        tokenIdCounter.increment();\n        uint tokenId = tokenIdCounter.current();\n        \n        require(!_exists(tokenId), \"token already minted\");\n        require(maxSupply != 0, \"max Supply cannot be equal to zero\");\n        require(tokenId <= maxSupply, \"Cannot mint more than maximum supply limit\");\n\n            _safeMint(_to, tokenId);\n    }\n\n    function _beforeTokenTransfer(\n        address from, \n        address to, \n        uint256 tokenId) internal override(ERC721, ERC721Enumerable){\n        super._beforeTokenTransfer(from, to , tokenId);\n    }\n\n    function supportsInterface(bytes4 interfaceId) public view override (ERC721, ERC721Enumerable)returns (bool){\n       return super.supportsInterface(interfaceId);\n    }\n}\n\n",
  "sourcePath": "/media/umar/2EB40689B406542D/Blockchain/ICO-721/src/contracts/token721.sol",
  "compiler": {
    "name": "solc",
    "version": "0.8.4+commit.c7e474f2.Emscripten.clang"
  },
  "schemaVersion": "3.4.7",
  "updatedAt": "2022-05-19T09:41:19.284Z",
  "networkType": "ethereum",
  "devdoc": {
    "kind": "dev",
    "methods": {
      "approve(address,uint256)": {
        "details": "See {IERC721-approve}."
      },
      "balanceOf(address)": {
        "details": "See {IERC721-balanceOf}."
      },
      "getApproved(uint256)": {
        "details": "See {IERC721-getApproved}."
      },
      "isApprovedForAll(address,address)": {
        "details": "See {IERC721-isApprovedForAll}."
      },
      "name()": {
        "details": "See {IERC721Metadata-name}."
      },
      "ownerOf(uint256)": {
        "details": "See {IERC721-ownerOf}."
      },
      "safeTransferFrom(address,address,uint256)": {
        "details": "See {IERC721-safeTransferFrom}."
      },
      "safeTransferFrom(address,address,uint256,bytes)": {
        "details": "See {IERC721-safeTransferFrom}."
      },
      "setApprovalForAll(address,bool)": {
        "details": "See {IERC721-setApprovalForAll}."
      },
      "symbol()": {
        "details": "See {IERC721Metadata-symbol}."
      },
      "tokenByIndex(uint256)": {
        "details": "See {IERC721Enumerable-tokenByIndex}."
      },
      "tokenOfOwnerByIndex(address,uint256)": {
        "details": "See {IERC721Enumerable-tokenOfOwnerByIndex}."
      },
      "tokenURI(uint256)": {
        "details": "See {IERC721Metadata-tokenURI}."
      },
      "totalSupply()": {
        "details": "See {IERC721Enumerable-totalSupply}."
      },
      "transferFrom(address,address,uint256)": {
        "details": "See {IERC721-transferFrom}."
      }
    },
    "version": 1
  },
  "userdoc": {
    "kind": "user",
    "methods": {},
    "version": 1
  }
}